:02000000272BAC
:1000060083120313FB01FA01F901F801A001730D34
:10001600F80D7408F8027508031C750FF9027608C6
:10002600031C760FFA027708031C770FFB02000108
:10003600031C0130A002F30D0730FC00730DF80D10
:10004600F90DFA0DFB0DA00D7408731C3C28F8027F
:100056007508031C750FF9027608031C760FFA0261
:100066007708031C770FFB020001031C0130A00276
:100076004D28F80775080318750FF9077608031851
:10008600760FFA0777080318770FFB0700010318A6
:100096000130A007F30DFC0B2128720DF80DF90DA8
:1000A600FA0DFB0DA00D7408731C6B28F802750879
:1000B600031C750FF9027608031C760FFA027708FF
:1000C600031C770FFB020001031C0130A0027C28F1
:1000D600F80775080318750FF90776080318760FE1
:1000E600FA0777080318770FFB070001031801309A
:1000F600A007F20D0730FC00720DF80DF90DFA0D90
:10010600FB0DA00D7408721C9A28F8027508031CD2
:10011600750FF9027608031C760FFA027708031C9E
:10012600770FFB020001031C0130A002AB28F80781
:1001360075080318750FF90776080318760FFA077E
:1001460077080318770FFB07000103180130A00793
:10015600F20DFC0B7F28710DF80DF90DFA0DFB0D54
:10016600A00D7408721CC928F8027508031C750FC7
:10017600F9027608031C760FFA027708031C770F3C
:10018600FB020001031C0130A002DA28F8077508FB
:100196000318750FF90776080318760FFA0777081C
:1001A6000318770FFB07000103180130A007F10DB4
:1001B6000730FC00710DF80DF90DFA0DFB0DA00DC1
:1001C6007408711CF828F8027508031C750FF902EB
:1001D6007608031C760FFA027708031C770FFB02DA
:1001E6000001031C0130A0020929F807750803184D
:1001F600750FF90776080318760FFA0777080318BC
:10020600770FFB07000103180130A007F10DFC0B67
:10021600DD28700DF80DF90DFA0DFB0DA00D740813
:10022600711C2729F8027508031C750FF902760858
:10023600031C760FFA027708031C770FFB020001F6
:10024600031C0130A0023829F80775080318750F3A
:10025600F90776080318760FFA0777080318770F59
:10026600FB07000103180130A007F00D0730FC0062
:10027600700DF80DF90DFA0DFB0DA00D7408701C2C
:100286005629F8027508031C750FF9027608031C37
:10029600760FFA027708031C770FFB020001031C96
:1002A6000130A0026729F80775080318750FF907CA
:1002B60076080318760FFA0777080318770FFB07F7
:1002C600000103180130A007F00DFC0B3B29701844
:1002D6007A297408F80775080318750FF907760860
:1002E6000318760FFA0777080318770FFB0708003D
:1002F60083160313AE03AE032E08003C03188829A9
:10030600AE030000000000007F290000000000008E
:06031600000000000800D9
:10031C0083120313F801F9011030FC00710DF80D74
:10032C00F90D7408F8027508031C750FF90203180F
:10033C00A6297408F80775080318750FF907031038
:0A034C00F00DF10DFC0B94290800E0
:10035600831203132230FC00F801F901FA01FB01B4
:10036600FC030319E1290310FB0CFA0CF90CF80C39
:10037600F30CF20CF10CF00C031CB329FC0303196B
:10038600D3297408F80775080318750FF907760856
:100396000318760FFA0777080318770FFB07B729B4
:1003A6007408F80775080318750FF9077608031817
:0E03B600760FFA0777080318770FFB07080089
:1003C400403083120313F0001F30F100F201F301F7
:0203D40008001F
:0E03D600831203136D088A006C088200080071
:1003E400E221E830F4000330F500F601F701AB2117
:1003F40070088316AA007108AB007208AC00730879
:10040400AD002208F4002308F500F601F7010320EB
:1004140070088316AA007108AB007208AC00730858
:10042400AD007008F5007108F6007208F700730853
:10043400F800F80CF70CF60CF50CF813F80CF70CA4
:10044400F60CF50CF8137508F0007608F10077083F
:10045400F2007808F300F30CF20CF10CF00CF31337
:100464007008A6007108A700E22183162408F4008E
:100474002508F500F601F701AB2183162608F900DB
:100484002708FA00FB01FC010330F8007908F400A6
:100494007A08F5007B08F6007C08F7007808031951
:1004A4005A2AF40DF50DF60DF70D7410FF3E512A7E
:1004B400032070088316AA007108AB007208AC0010
:1004C4007308AD000A30F4000030F5002608F0008F
:1004D4002708F1008E2170088316A6007108A70072
:1004E40000307102031D782A0330700203187B2A3E
:1004F400CC2A83126E08840083162D08003C031D49
:100504008D2A2C08003C031D8D2A2B08003C031D5A
:100514008D2A2A08003C0318CA2A83126F08800413
:10052400831627080319A62AA801A9010030290265
:10053400031D9E2A270828020318A62AAE017B2140
:10054400A80A0319A90A982A2608AE007B212008C4
:10055400800527080319BE2AA801A9010030290231
:10056400031DB62A270828020318BE2AAE017B21E0
:10057400A80A0319A90AB02A2608AE007B21013073
:10058400AA02031CAB02031CAC02031CAD027E2AAC
:06059400200880050800AC
:10059A00831203137008F100F0010830FC0071089F
:1005AA00F40C0318DC2AFC0BD52AF10100340310E1
:1005BA00E12AF40C0318F107F10CF00CFC0BDE2A0B
:0205CA00080027
:1005CC0083120313F1018316220871020318F92A0E
:1005DC001A30FC00F830FD00FD0BF22AFC0BF22A5D
:0805EC000000F10AE92A0800F1
:1005F4008316031322088312EE0083162308F100E6
:100604000130F000710803190B2BF00D7010FF3E40
:10061400052B70088312EF00F00970088316A00000
:1006240080302207840070088005841370088005D8
:020634000800BC
:10063600EB218A110A128000840AEC0A0319ED0ADA
:08064600F003031D1B2B08004B
:10064E00AA2308308316031386000630A200A301E6
:10065E00FA22A101193021020318542B2108F000AF
:10066E00F00D70107008213E84000008A200840A6C
:10067E000008A3002108533E84000008F0006430F7
:10068E00F400CD2270088316A4007108A500F22193
:10069E000630A200E622A10A312B6430A200E62227
:0406AE00302B582B6A
:10075400213084004B3083120313F0005E30EC0030
:080764000330ED001B23080027
:1006BC000634013406340134263401340634013452
:1006CC005D3401344A3401340634013406340134C7
:1006DC002634013406340134883401345D34013459
:1006EC0006340134063401340B340234B83401348A
:1006FC005D3401344A34013426340134D2340134AB
:10070C00D2340134B83401345D34013488340134CA
:04071C005D34013413
:10072000043404340834083408340A3404340434F7
:100730000834083408340A340434043408340834DF
:1007400008340834083404340434083408340834D1
:020750000C3467
:02400E004A2F37
:00000001FF
